{
  "contractName": "DocumentVerification",
  "abi": [
    {
      "inputs": [
        {
          "internalType": "string",
          "name": "_id",
          "type": "string"
        },
        {
          "internalType": "string",
          "name": "_name",
          "type": "string"
        },
        {
          "internalType": "string",
          "name": "_details",
          "type": "string"
        },
        {
          "internalType": "address",
          "name": "_accountAddress",
          "type": "address"
        }
      ],
      "name": "addStudent",
      "outputs": [],
      "stateMutability": "nonpayable",
      "type": "function"
    },
    {
      "inputs": [
        {
          "internalType": "string",
          "name": "_id",
          "type": "string"
        }
      ],
      "name": "getStudent",
      "outputs": [
        {
          "internalType": "string",
          "name": "",
          "type": "string"
        },
        {
          "internalType": "string",
          "name": "",
          "type": "string"
        },
        {
          "internalType": "address",
          "name": "",
          "type": "address"
        }
      ],
      "stateMutability": "view",
      "type": "function",
      "constant": true
    }
  ],
  "bytecode": "0x608060405234801561001057600080fd5b506108aa806100206000396000f3fe608060405234801561001057600080fd5b50600436106100365760003560e01c80636af6a0391461003b578063d029661214610057575b600080fd5b61005560048036038101906100509190610540565b610089565b005b610071600480360381019061006c91906104ff565b610185565b6040516100809392919061067b565b60405180910390f35b60405180608001604052808581526020018481526020018381526020018273ffffffffffffffffffffffffffffffffffffffff168152506000856040516100d09190610664565b908152602001604051809103902060008201518160000190805190602001906100fa9291906103df565b5060208201518160010190805190602001906101179291906103df565b5060408201518160020190805190602001906101349291906103df565b5060608201518160030160006101000a81548173ffffffffffffffffffffffffffffffffffffffff021916908373ffffffffffffffffffffffffffffffffffffffff16021790555090505050505050565b60608060008060008560405161019b9190610664565b90815260200160405180910390206040518060800160405290816000820180546101c4906107bc565b80601f01602080910402602001604051908101604052809291908181526020018280546101f0906107bc565b801561023d5780601f106102125761010080835404028352916020019161023d565b820191906000526020600020905b81548152906001019060200180831161022057829003601f168201915b50505050508152602001600182018054610256906107bc565b80601f0160208091040260200160405190810160405280929190818152602001828054610282906107bc565b80156102cf5780601f106102a4576101008083540402835291602001916102cf565b820191906000526020600020905b8154815290600101906020018083116102b257829003601f168201915b505050505081526020016002820180546102e8906107bc565b80601f0160208091040260200160405190810160405280929190818152602001828054610314906107bc565b80156103615780601f1061033657610100808354040283529160200191610361565b820191906000526020600020905b81548152906001019060200180831161034457829003601f168201915b505050505081526020016003820160009054906101000a900473ffffffffffffffffffffffffffffffffffffffff1673ffffffffffffffffffffffffffffffffffffffff1673ffffffffffffffffffffffffffffffffffffffff16815250509050806020015181604001518260600151935093509350509193909250565b8280546103eb906107bc565b90600052602060002090601f01602090048101928261040d5760008555610454565b82601f1061042657805160ff1916838001178555610454565b82800160010185558215610454579182015b82811115610453578251825591602001919060010190610438565b5b5090506104619190610465565b5090565b5b8082111561047e576000816000905550600101610466565b5090565b6000610495610490846106f1565b6106c0565b9050828152602081018484840111156104ad57600080fd5b6104b884828561077a565b509392505050565b6000813590506104cf8161085d565b92915050565b600082601f8301126104e657600080fd5b81356104f6848260208601610482565b91505092915050565b60006020828403121561051157600080fd5b600082013567ffffffffffffffff81111561052b57600080fd5b610537848285016104d5565b91505092915050565b6000806000806080858703121561055657600080fd5b600085013567ffffffffffffffff81111561057057600080fd5b61057c878288016104d5565b945050602085013567ffffffffffffffff81111561059957600080fd5b6105a5878288016104d5565b935050604085013567ffffffffffffffff8111156105c257600080fd5b6105ce878288016104d5565b92505060606105df878288016104c0565b91505092959194509250565b6105f481610748565b82525050565b600061060582610721565b61060f818561072c565b935061061f818560208601610789565b6106288161084c565b840191505092915050565b600061063e82610721565b610648818561073d565b9350610658818560208601610789565b80840191505092915050565b60006106708284610633565b915081905092915050565b6000606082019050818103600083015261069581866105fa565b905081810360208301526106a981856105fa565b90506106b860408301846105eb565b949350505050565b6000604051905081810181811067ffffffffffffffff821117156106e7576106e661081d565b5b8060405250919050565b600067ffffffffffffffff82111561070c5761070b61081d565b5b601f19601f8301169050602081019050919050565b600081519050919050565b600082825260208201905092915050565b600081905092915050565b60006107538261075a565b9050919050565b600073ffffffffffffffffffffffffffffffffffffffff82169050919050565b82818337600083830152505050565b60005b838110156107a757808201518184015260208101905061078c565b838111156107b6576000848401525b50505050565b600060028204905060018216806107d457607f821691505b602082108114156107e8576107e76107ee565b5b50919050565b7f4e487b7100000000000000000000000000000000000000000000000000000000600052602260045260246000fd5b7f4e487b7100000000000000000000000000000000000000000000000000000000600052604160045260246000fd5b6000601f19601f8301169050919050565b61086681610748565b811461087157600080fd5b5056fea26469706673582212208127accef990ab8e72589874651fd6f42083a13126418f440aeedf9059442b9e64736f6c63430008000033",
  "immutableReferences": {},
  "source": "// SPDX-License-Identifier: MIT\r\npragma solidity ^0.8.0;\r\n\r\ncontract DocumentVerification {\r\n    struct Student {\r\n        string id;\r\n        string name;\r\n        string details;\r\n        address accountAddress;\r\n    }\r\n\r\n    mapping(string => Student) private students;\r\n\r\n    function addStudent(string memory _id, string memory _name, string memory _details, address _accountAddress) public {\r\n        students[_id] = Student(_id, _name, _details, _accountAddress);\r\n    }\r\n\r\n    function getStudent(string memory _id) public view returns (string memory, string memory, address) {\r\n        Student memory student = students[_id];\r\n        return (student.name, student.details, student.accountAddress);\r\n    }\r\n}\r\n",
  "sourcePath": "C:\\Users\\ACER\\Downloads\\Contracts\\New folder\\scholarship-blockchain\\contracts\\DocumentVerification.sol",
  "compiler": {
    "name": "solc",
    "version": "0.8.0+commit.c7dfd78e.Emscripten.clang"
  },
  "schemaVersion": "3.4.16",
  "updatedAt": "2024-10-07T20:15:16.848Z",
  "networkType": "ethereum",
  "devdoc": {
    "kind": "dev",
    "methods": {},
    "version": 1
  },
  "userdoc": {
    "kind": "user",
    "methods": {},
    "version": 1
  }
}